:100000000C9471000C9483000C9483000C94830076
:100010000C9483000C9483000C9483000C94830054
:100020000C9483000C9483000C9483000C94830044
:100030000C9483000C9483000C9483000C94830034
:100040000C9483000C9483000C9483000C94830024
:100050000C9483000C9483000C9483000C94830014
:100060000C9483000C9483000C9483000C94830004
:100070000C9483000C9483000C9483000C948300F4
:100080000C9483000C9483000C9483000C948300E4
:100090000C9483000C9483000C9483000C948300D4
:1000A0000C9483000C9483000C948300630167011B
:1000B0006B016F0176017A017E0182018A018E0156
:1000C000920196019A019E01A201A601AA01B20124
:1000D000B601BE018601C601CA01CE01D201D60118
:1000E000DA0111241FBECFEFDAE0DEBFCDBF21E081
:1000F000A0E0B1E001C01D92A031B207E1F70E947B
:1001000048040C94D9050C940000AAE7B0E08C9147
:1001100087608C93ECE7F0E080818066808380814B
:100120008E7F808380818D7F808380818B7F8083A1
:100130008081877F808380818F7E8083EBE7F0E002
:1001400080818F7D80838C9180688C93089528981E
:100150000E944104289A0895FF920F931F93CF9312
:10016000DF93F62E2898C3E0D0E0082F10E00C179C
:100170001D0721F48F2D0E94A70003C080E00E947C
:10018000A7002197A1F7289A80E0DF91CF911F91D6
:100190000F91FF9008956F927F928F929F92AF92EE
:1001A000BF92CF92DF92EF92FF920F931F93CF9364
:1001B000DF93782E4A015B01622E022F0695069589
:1001C0000695822F877009F00F5F002341F1C02F41
:1001D000D0E02197CC0FDD1FCC0FDD1FCC0FDD1F32
:1001E00010E080E090E0DC01CC24D82EE92EFA2E3D
:1001F000C501B4010C2E04C0969587957795679537
:100200000A94D2F7872D0E94AC00A7019601282BF3
:10021000DA01C9011F5F28970113E6CF03C080E010
:1002200090E0DC0120E230E0261931094FEF5FEF6A
:10023000BA0104C076956795579547952A95D2F7E8
:100240008A019B01082319232A233B23C901B801F2
:10025000DF91CF911F910F91FF90EF90DF90CF90A2
:10026000BF90AF909F908F907F906F900895CF93A5
:10027000C82F80ED0E94A70060E08C2F0E94AC0088
:1002800060E08C2F0E94AC00CF910895209A289AAC
:1002900087B187B988B1806C88B96E9A76980895CD
:1002A000769A08950F931F93E62FBA01A9010E2F96
:1002B00010E0F8013197EB31F10508F082C0EA5AFD
:1002C000FF4F0C94D30526E10E94CB0080C029E0AB
:1002D0000E94CB007CC026E10E94CB0078C024E1C4
:1002E00040E050E0BA010E94CB0071C02CE00E94B7
:1002F000CB006DC02CE00E94CB0069C02AE00E94B8
:10030000CB0065C02DE00E94CB0061C02AE00E94B6
:10031000CB005DC028E00E94CB0059C028E00E94BD
:10032000CB0055C028E00E94CB0051C028E00E94BD
:10033000CB004DC02EE00E94CB0049C028E00E94B7
:10034000CB0045C028E00E94CB0041C028E00E94BD
:10035000CB003DC04F7055276627772728E00E94C5
:10036000CB0035C028E00E94CB0031C04F7155272B
:100370006627772728E00E94CB0029C04F715527B8
:100380006627772728E00E94CB0021C028E00E9442
:10039000CB001DC028E00E94CB0019C020E10E94C4
:1003A000CB0015C028E00E94CB0011C020E10E94C4
:1003B000CB000DC020E140E050E0BA010E94CB002C
:1003C00006C0642F0E94AC0060E070E0CB011F917A
:1003D0000F910895CF92DF92EF92FF920F931F93A8
:1003E000CF93DF93C82FD42F68017901642F0E9427
:1003F000AC00A70196016D2F8C2F0E945201DF9156
:10040000CF911F910F91FF90EF90DF90CF900895C3
:100410000F931F93062F10E020E030E04AE060E0E9
:100420000E94EA011F910F9108950F931F93062FC9
:1004300010E020E030E049E060E00E94EA011F9116
:100440000F9108950F931F93062F10E020E030E0E6
:100450004BE060E00E94EA011F910F9108950F9315
:100460001F93062F10E020E030E04CE060E00E9497
:10047000EA011F910F9108950F931F93062F10E02B
:1004800020E030E043E160E00E94EA011F910F911B
:1004900008950F931F93062F10E020E030E044E111
:1004A00060E00E94EA011F910F9108950F931F933E
:1004B000CF93C82FCB01BA010E9497042CE83CEBE4
:1004C0004CE05EE30E943E050E9468048B019C01A3
:1004D000011580E118072105310520F00FEF1FE01D
:1004E00020E030E045E060E08C2F0E94EA01CF91EF
:1004F0001F910F9108950F931F93CF93C82FCB0196
:10050000BA010E9497042CE83CEB4CE05EE30E94A9
:100510003E050E9468048B019C01011580E11807CB
:100520002105310520F00FEF1FE020E030E046E02C
:1005300060E08C2F0E94EA01CF911F910F910895E6
:10054000CF93DF93C82FD62F60620E94AC0020E0CB
:1005500030E0A9016D2F8C2F0E945201DF91CF91C5
:100560000895FF920F931F93CF93DF93F82EEB0123
:100570006AE10E94A002DC01CB01807FCF70DD2701
:100580008E01DD0F220B330B082B192B2A2B3B2B53
:100590004AE160E08F2D0E94EA01DF91CF911F9127
:1005A0000F91FF900895FF920F931F93CF93DF93C6
:1005B000F82EEB016AE10E94A002DC01CB018F7EE4
:1005C000C071DD278E01DD0F220B330B082B192B99
:1005D0002A2B3B2B4AE160E08F2D0E94EA01DF913C
:1005E000CF911F910F91FF900895FF920F931F934A
:1005F000CF93DF93F82EEB016AE10E94A002DC01A9
:10060000CB018F7DC072DD278E01DD0F220B330BF6
:10061000082B192B2A2B3B2B4AE160E08F2D0E94DF
:10062000EA01DF91CF911F910F91FF9008950F93F1
:100630001F93CF93C82F6AE10E94A0028B019C01F7
:100640001370222733274AE160E08C2F0E94EA01D1
:10065000CF911F910F9108950F931F93CF93DF9325
:10066000D82FC62F6AE10E94A0028B019C010F7750
:10067000C0780C2B4AE160E08D2F0E94EA01DF91E7
:10068000CF911F910F9108950F931F93CF93DF93F5
:10069000C82FD62F68E10E94A0028B019C01002781
:1006A000222733270D2B48E160E08C2F0E94EA01BE
:1006B000DF91CF911F910F9108950E9497042DEB28
:1006C00037E346E85DE30E943E050E9451040E9424
:1006D0006804611524E072078105910520F06FEF31
:1006E00073E080E090E008950F931F93CF93C82F9D
:1006F000CB01BA010E945D038B019C0147E060E0E1
:100700008C2F0E94EA01CF911F910F910895EF92D3
:10071000FF920F931F93CF93E0E0F1E080EA808394
:1007200081838283838388EC90E0A0E0B0E08483BF
:100730009583A683B78380879187A287B38784E652
:1007400090E0A0E0B0E084879587A687B7870E94F5
:1007500046010E9450018FE99FE00197F1F700C028
:10076000000080E00E94A70080E00E94A70080E0D7
:100770000E94A700C1E00F2EF0E0EF2EF1E0FF2E67
:10078000F02D6AE18C2F0E94A00266EA8C2F0E9455
:10079000440366E18C2F0E94A00268E08C2F0E9427
:1007A0003C0260E88C2F0E942C0340E060E08C2F1C
:1007B0000E94170360E070E08C2F0E94F50260E158
:1007C00070E08C2F0E94D30260E070E08C2F0E94BA
:1007D000B10260E08C2F0E944902F70144815581EB
:1007E000668177818C2F0E947403F70160818C2FC2
:1007F0000E940802F70161818C2F0E941502F70107
:1008000062818C2F0E942202F70163818C2F0E944B
:100810002F02F70140855185628573858C2F0E94D8
:100820005602F70144855585668577858C2F0E9491
:100830007B020FEA10E020E030E047E160E08C2F1F
:100840000E94EA018C2F0E943701CF5FC43009F06B
:1008500098CFCF911F910F91FF90EF900895279A15
:1008600084B5836884BD85B5816085BD089584B1F4
:10087000866084B98CB58D658CBD8DB581608DBD6C
:1008800008958EBD00000DB407FEFDCF8EB508950E
:100890000E9437040E9487030E942F040E94850053
:1008A000FFCF0E941F0590F09F3748F4911116F476
:1008B0000C94380560E070E080E89FE3089526F02E
:1008C0001B16611D711D811D0C94D4040C94EF0442
:1008D0000E94050588F09F5798F0B92F9927B751C6
:1008E000B0F0E1F0660F771F881F991F1AF0BA95D4
:1008F000C9F714C0B13091F00E943705B1E00895F6
:100900000C943705672F782F8827B85F39F0B93FE7
:10091000CCF3869577956795B395D9F73EF4909586
:100920008095709561957F4F8F4F9F4F0895E89404
:1009300009C097FB3EF490958095709561957F4F27
:100940008F4F9F4F9923A9F0F92F96E9BB279395D5
:10095000F695879577956795B795F111F8CFFAF4E5
:10096000BB0F11F460FF1BC06F5F7F4F8F4F9F4F16
:1009700016C0882311F096E911C0772321F09EE874
:10098000872F762F05C0662371F096E8862F70E0DA
:1009900060E02AF09A95660F771F881FDAF7880FB4
:1009A0009695879597F90895882371F4772321F018
:1009B0009850872B762F07C0662311F499270DC016
:1009C0009051862B70E060E02AF09A95660F771FB1
:1009D000881FDAF7880F9695879597F908959F3FB6
:1009E00031F0915020F4879577956795B795880FEA
:1009F000911D9695879597F9089557FD9058440F46
:100A0000551F59F05F3F71F04795880F97FB991F6D
:100A100061F09F3F79F0879508951216130614062A
:100A2000551FF2CF4695F1DF08C0161617061806B7
:100A3000991FF1CF869571056105089408950E946C
:100A40000505A0F0BEE7B91788F4BB279F3860F40E
:100A50001616B11D672F782F8827985FF7CF8695D8
:100A600077956795B11D93959639C8F30895E894E5
:100A7000BB2766277727CB0197F908950E94510578
:100A80000C94C2050E94B40538F00E94BB0520F00A
:100A9000952311F00C94AB050C94B10511240C9422
:100AA00038050E94FD0470F3959FC1F3950F50E047
:100AB000551F629FF001729FBB27F00DB11D639F10
:100AC000AA27F00DB11DAA1F649F6627B00DA11DB6
:100AD000661F829F2227B00DA11D621F739FB00D5C
:100AE000A11D621F839FA00D611D221F749F3327CC
:100AF000A00D611D231F849F600D211D822F762F65
:100B00006A2F11249F5750409AF0F1F088234AF041
:100B1000EE0FFF1FBB1F661F771F881F91505040AD
:100B2000A9F79E3F510580F00C94AB050C94380555
:100B30005F3FE4F3983ED4F3869577956795B79534
:100B4000F795E7959F5FC1F7FE2B880F911D96954E
:100B5000879597F9089597F99F6780E870E060E0BE
:100B600008959FEF80EC089500240A941616170646
:100B700018060906089500240A941216130614068E
:100B800005060895092E0394000C11F4882352F0F1
:100B9000BB0F40F4BF2B11F460FF04C06F5F7F4FA9
:100BA0008F4F9F4F0895EE0FFF1F0590F491E02D9A
:060BB0000994F894FFCF48
:00000001FF
