S0150000506F7765725354455030315F322E73726563D4
S11300000C9471000C9483000C9483000C94830072
S11300100C9483000C9483000C9483000C94830050
S11300200C9483000C9483000C9483000C94830040
S11300300C9483000C9483000C9483000C94830030
S11300400C9483000C94B8040C9483000C948300E7
S11300500C9483000C9483000C9483000C94830010
S11300600C9483000C9483000C9483000C94830000
S11300700C9483000C9483000C9483000C948300F0
S11300800C9483000C9483000C9483000C948300E0
S11300900C9483000C9483000C9483000C948300D0
S11300A00C9483000C9483000C948300AB01AF0187
S11300B0B301B701BE01C201C601CA01D201D60112
S11300C0DA01DE01E201E601EA01EE01F201FA01E0
S11300D0FE010602CE010E02120216021A021E02CE
S11300E0220211241FBECFEFDAE0DEBFCDBF21E034
S11300F0A0E0B1E001C01D92A031B207E1F70E9477
S1130100C2040C946F060C940000AAE7B0E08C9132
S113011087608C93ECE7F0E0808180668083808147
S11301208E7F808380818D7F808380818B7F80839D
S11301308081877F808380818F7E8083EBE7F0E0FE
S113014080818F7D80838C9180688C9308950E9438
S11301509D040895AF92BF92CF92DF92EF92FF92E7
S11301600F931F93CF93DF9300D01F92CDB7DEB7C9
S1130170E62EF82E83E08F1520F40F2EF3E0FF2EE9
S1130180F02D2898F11011C08E010F5F1F4F6E01E2
S113019094E0C90ED11C8E2D0E94A700F801819312
S11301A08F01CE16DF06B9F71DC0CE0101966C0192
S11301B003E010E0AF2CB12C0A151B0531F48E2D91
S11301C00E94A700F601808305C080E00E94A7007A
S11301D0F601808301501109FFEFCF1ADF0A0115E0
S11301E0110551F7289AE3E0F0E0EF19F109EC0F5B
S11301F0FD1F81810F900F900F90DF91CF911F9180
S11302000F91FF90EF90DF90CF90BF90AF90089543
S11302106F927F928F929F92AF92BF92CF92DF9212
S1130220EF92FF920F931F93CF93DF93782E4A019F
S11302305B01622E022F069506950695822F877024
S113024009F00F5F002341F1C02FD0E02197CC0FBC
S1130250DD1FCC0FDD1FCC0FDD1F10E080E090E030
S1130260DC01CC24D82EE92EFA2EC501B4010C2EC3
S113027004C096958795779567950A94D2F7872D4C
S11302800E94AA00A7019601282BDA01C9011F5F69
S113029028970113E6CF03C080E090E0DC0120E260
S11302A030E0261931094FEF5FEFBA0104C07695AB
S11302B06795579547952A95D2F78A019B0108239C
S11302C019232A233B23C901B801DF91CF911F9140
S11302D00F91FF90EF90DF90CF90BF90AF909F90E1
S11302E08F907F906F9008951F93CF93DF93182F73
S11302F060ED0E94AA0060E0812F0E94AA00C82F2E
S1130300D0E0DC2FCC2760E0812F0E94AA009E0160
S1130310282BC901DF91CF911F910895209A289A23
S113032087B187B988B1806C88B96E9A7698089538
S1130330769A08950F931F93E62FBA01A9010E2F01
S113034010E0F8013197EB31F10508F082C0EA5A68
S1130350FF4F0C94690626E10E94080180C029E041
S11303600E9408017CC026E10E94080178C024E1B3
S113037040E050E0BA010E94080171C02CE00E94E4
S113038008016DC02CE00E94080169C02AE00E94A7
S1130390080165C02DE00E94080161C02AE00E94A6
S11303A008015DC028E00E94080159C028E00E94AD
S11303B0080155C028E00E94080151C028E00E94AD
S11303C008014DC02EE00E94080149C028E00E94A7
S11303D0080145C028E00E94080141C028E00E94AD
S11303E008013DC04F7055276627772728E00E94F3
S11303F0080135C028E00E94080131C04F7155271B
S11304006627772728E00E94080129C04F715527E5
S11304106627772728E00E94080121C028E00E946F
S113042008011DC028E00E94080119C020E10E94B3
S1130430080115C028E00E94080111C020E10E94B3
S113044008010DC020E140E050E0BA010E9408011B
S113045006C0642F0E94AA0060E070E0CB011F91E7
S11304600F910895CF92DF92EF92FF92CF93DF9393
S1130470C82FD62F69017A010E94AA00A70196010C
S11304806D2F8C2F0E949A01DF91CF91FF90EF90F6
S1130490DF90CF900895262F30E040E050E06AE0EE
S11304A00E9432020895262F30E040E050E069E0D7
S11304B00E9432020895262F30E040E050E06BE0C5
S11304C00E9432020895262F30E040E050E06CE0B4
S11304D00E9432020895262F30E040E050E063E1AC
S11304E00E9432020895262F30E040E050E064E19B
S11304F00E9432020895CF93C82FCB01BA010E9403
S11305002D052CE83CEB4CE05EE30E94D4050E94F0
S1130510FE049B01AC01211580E13807410551051A
S113052020F02FEF3FE040E050E065E08C2F0E9488
S11305303202CF910895CF93C82FCB01BA010E9404
S11305402D052CE83CEB4CE05EE30E94D4050E94B0
S1130550FE049B01AC01211580E1380741055105DA
S113056020F02FEF3FE040E050E066E08C2F0E9447
S11305703202CF910895CF93DF93C82FD62F6062B4
S11305800E94AA0020E030E0A9016D2F8C2F0E9468
S11305909A01DF91CF9108951F93CF93DF93182F82
S11305A0EB016AE10E94BB02DC01CB01807FCF70CA
S11305B0DD27AE01DD0F660B770B9A01AB01282B0B
S11305C0392B4A2B5B2B6AE1812F0E943202DF9187
S11305D0CF911F9108951F93CF93DF93182FEB01B1
S11305E06AE10E94BB02DC01CB018F7EC071DD2772
S11305F0AE01DD0F660B770B9A01AB01282B392B6B
S11306004A2B5B2B6AE1812F0E943202DF91CF914A
S11306101F9108951F93CF93DF93182FEB016AE185
S11306200E94BB02DC01CB018F7DC072DD27AE01CD
S1130630DD0F660B770B9A01AB01282B392B4A2B64
S11306405B2B6AE1812F0E943202DF91CF911F91CF
S11306500895CF93C82F6AE10E94BB029B01AC01AD
S11306603370442755276AE18C2F0E943202CF91C0
S11306700895CF93DF93D82FC62F6AE10E94BB025F
S1130680DC01CB018F77C0789C01AD012C2B6AE192
S11306908D2F0E943202DF91CF910895CF93DF9383
S11306A0D82FC62F66E10E94BB022C2F2770687FCB
S11306B0262B30E040E050E066E18D2F0E943202AC
S11306C0DF91CF910895CF93DF93C82FD62F68E1A0
S11306D00E94BB02DC01CB018827AA27BB279C010F
S11306E0AD012D2B68E18C2F0E943202DF91CF9156
S11306F008950E942D052DEB37E346E85DE30E9443
S1130700D4050E94E7040E94FE04611524E07207E8
S11307108105910520F06FEF73E080E090E008958B
S1130720CF93C82FCB01BA010E9479039B01AC017E
S113073067E08C2F0E943202CF9108956BE10E94F2
S1130740BB02DC01CB01B695A7959795879521E06F
S113075082278170992708950F931F93CF93C82FF1
S11307608C2F0E949E03892BD9F700E011E080E3CF
S1130770F801808381838283838388EC90E0A0E006
S1130780B0E084839583A683B78384E690E0A0E0F9
S1130790B0E080879187A287B38784879587A687EF
S11307A0B7870E948E010E9498018FE99FE001970C
S11307B0F1F700C00000289880E00E94A70080E0C4
S11307C00E94A70080E00E94A700289A6AE18C2F6B
S11307D00E94BB0266EA8C2F0E94630367E08C2FA1
S11307E00E944E036FE18C2F0E946B0260E88C2FF5
S11307F00E94390340E060E08C2F0E94290360E0EE
S113080070E08C2F0E940A0360E170E08C2F0E943C
S1130810EB026AE070E08C2F0E94CC0260E18C2F26
S11308200E947302F80144815581668177818C2F7F
S11308300E949003F80160818C2F0E944B02F80102
S113084061818C2F0E945302F80162818C2F0E94D7
S11308505B02F80163818C2F0E946302F8014085DA
S11308605185628573858C2F0E947B02F801448533
S11308705585668577858C2F0E949B022FEA30E090
S113088040E050E067E18C2F0E9432028C2F0E94DE
S11308907401CF911F910F9108950F931F93CF93DC
S11308A0DF9300D000D0CDB7DEB7182F062F2983F1
S11308B03A834B835C83812F0E949E03892BD9F753
S11308C0602F61706064812F0E94AA0089819A81DF
S11308D0AB81BC810097A044B10540F08FEF9FEF3E
S11308E0AFE3B0E089839A83AB83BC836B81812FB0
S11308F00E94AA006A81812F0E94AA006981812F27
S11309000E94AA000F900F900F900F90DF91CF914B
S11309101F910F910895279A84B5836884BD85B586
S1130920816085BD089584B1866084B98CB58D6578
S11309308CBD8DB581608DBD08958EBD00000DB454
S113094007FEFDCF8EB50895E1E8F0E08081836075
S1130950808310928500109284008EE290E0909340
S113096089008093880082E080936F0078940895D2
S11309701F920F920FB60F9211240F900FBE0F907B
S11309801F9018950E94A4040E94930481E00E9481
S1130990AC030E948B040E94850020E032E340E017
S11309A050E061E081E00E944D0420E032E340E049
S11309B050E060E081E00E944D042FEF81E19AE76E
S11309C0215080409040E1F700C00000E6CF0E9433
S11309D0B50590F09F3748F4911116F40C94CE05A8
S11309E060E070E080E89FE3089526F01B16611D27
S11309F0711D811D0C946A050C9485050E949B054C
S1130A0088F09F5798F0B92F9927B751B0F0E1F0CB
S1130A10660F771F881F991F1AF0BA95C9F714C07B
S1130A20B13091F00E94CD05B1E008950C94CD054C
S1130A30672F782F8827B85F39F0B93FCCF38695B4
S1130A4077956795B395D9F73EF490958095709511
S1130A5061957F4F8F4F9F4F0895E89409C097FB8E
S1130A603EF490958095709561957F4F8F4F9F4F81
S1130A709923A9F0F92F96E9BB279395F6958795C5
S1130A8077956795B795F111F8CFFAF4BB0F11F488
S1130A9060FF1BC06F5F7F4F8F4F9F4F16C088232F
S1130AA011F096E911C0772321F09EE8872F762F65
S1130AB005C0662371F096E8862F70E060E02AF0A6
S1130AC09A95660F771F881FDAF7880F9695879592
S1130AD097F90895882371F4772321F09850872B90
S1130AE0762F07C0662311F499270DC09051862BE9
S1130AF070E060E02AF09A95660F771F881FDAF796
S1130B00880F9695879597F908959F3F31F09150F6
S1130B1020F4879577956795B795880F911D9695DD
S1130B20879597F9089557FD9058440F551F59F02C
S1130B305F3F71F04795880F97FB991F61F09F3FC6
S1130B4079F087950895121613061406551FF2CFEF
S1130B504695F1DF08C0161617061806991FF1CF3F
S1130B60869571056105089408950E949B05A0F07F
S1130B70BEE7B91788F4BB279F3860F41616B11D79
S1130B80672F782F8827985FF7CF86957795679595
S1130B90B11D93959639C8F30895E894BB27662749
S1130BA07727CB0197F908950E94E7050C9458061E
S1130BB00E944A0638F00E94510620F0952311F055
S1130BC00C9441060C94470611240C94CE050E9403
S1130BD0930570F3959FC1F3950F50E0551F629FE5
S1130BE0F001729FBB27F00DB11D639FAA27F00D82
S1130BF0B11DAA1F649F6627B00DA11D661F829FA9
S1130C002227B00DA11D621F739FB00DA11D621F8D
S1130C10839FA00D611D221F749F3327A00D611DAA
S1130C20231F849F600D211D822F762F6A2F11248C
S1130C309F5750409AF0F1F088234AF0EE0FFF1FBF
S1130C40BB1F661F771F881F91505040A9F79E3F16
S1130C50510580F00C9441060C94CE055F3FE4F3FB
S1130C60983ED4F3869577956795B795F795E7956C
S1130C709F5FC1F7FE2B880F911D9695879597F975
S1130C80089597F99F6780E870E060E008959FEF0A
S1130C9080EC089500240A9416161706180609060F
S1130CA0089500240A9412161306140605060895DE
S1130CB0092E0394000C11F4882352F0BB0F40F466
S1130CC0BF2B11F460FF04C06F5F7F4F8F4F9F4FA6
S1130CD00895EE0FFF1F0590F491E02D0994F89408
S1050CE0FFCF40
S9030000FC
