S0150000506F7765725354455030315F322E73726563D4
S11300000C9456000C9468000C9468000C946800DE
S11300100C9468000C9468000C9468000C946800BC
S11300200C9468000C9468000C9468000C946800AC
S11300300C9468000C9468000C9468000C9468009C
S11300400C9468000C9468000C9468000C9468008C
S11300500C9468000C9468000C9468000C9468007C
S11300600C9468000C9468000C9468000C9468006C
S11300700C9468000C9468000C9468000C9468005C
S11300800C9468000C9468000C9468000C9468004C
S11300900C9468000C9468000C9468000C9468003C
S11300A00C9468000C9468000C94680011241FBE22
S11300B0CFEFDAE0DEBFCDBF21E0A0E0B1E001C0C8
S11300C01D92A030B207E1F70E942D010C9430017B
S11300D00C940000EAE7F0E08081806480838081F2
S11300E086FDFDCF80917900837090E0982F88275A
S11300F020917800822B8032910528F42EB3207F42
S11301002EBB2EB32EBB9C01215231092F33310556
S113011020F42EB3207F2EBBF09A9C012156310986
S11301202F33310520F42EB3207F2EBBF19A9C018E
S1130130215A31092F33310530F42EB3207F2EBBE1
S11301402EB323602EBB9C01215E31092F33310570
S113015020F42EB3207F2EBBF29A9C012152314011
S11301602F33310530F42EB3207F2EBB2EB3256000
S11301702EBB9C01215631402F33310530F42EB370
S1130180207F2EBB2EB326602EBB9C01215A31400A
S11301902F33310530F42EB3207F2EBB2EB32760CE
S11301A02EBB9C01215E31402F33310520F42EB348
S11301B0207F2EBBF39A9C01215232402F3331050C
S11301C030F42EB3207F2EBB2EB329602EBB9C01AE
S11301D0215632402F33310530F42EB3207F2EBB0D
S11301E02EB32A602EBB9C01215A32402F33310595
S11301F030F42EB3207F2EBB2EB32B602EBB9C017C
S1130200215E32402F33310530F42EB3207F2EBBD4
S11302102EB32C602EBB9C01215233402F33310569
S113022030F42EB3207F2EBB2EB32D602EBB9C0149
S1130230215633402F33310530F42EB3207F2EBBAB
S11302402EB32E602EBB813A934030F08EB3807F64
S11302508EBB8EB38F608EBB08950E946A00FDCF63
S1070260F894FFCF3C
S9030000FC
