:100000000C9471000C9483000C9483000C94830076
:100010000C9483000C9483000C9483000C94830054
:100020000C9483000C9483000C9483000C94830044
:100030000C9483000C9483000C9483000C94830034
:100040000C9483000C9483000C9483000C94830024
:100050000C9483000C9483000C9483000C94830014
:100060000C9483000C9483000C9483000C94830004
:100070000C9483000C9483000C9483000C948300F4
:100080000C9483000C9483000C9483000C948300E4
:100090000C9483000C9483000C9483000C948300D4
:1000A0000C9483000C9483000C94830090019401C1
:1000B00098019C01A301A701AB01AF01B701BB01EE
:1000C000BF01C301C701CB01CF01D301D701DF01BC
:1000D000E301EB01B301F301F701FB01FF010302AF
:1000E000070211241FBECFEFDAE0DEBFCDBF21E053
:1000F000A0E0B1E001C01D92A031B207E1F70E947B
:1001000077040C9408060C940000AAE7B0E08C91E8
:1001100087608C93ECE7F0E080818066808380814B
:100120008E7F808380818D7F808380818B7F8083A1
:100130008081877F808380818F7E8083EBE7F0E002
:1001400080818F7D80838C9180688C9308950E943C
:10015000700408959F92AF92BF92CF92DF92EF9278
:10016000FF920F931F93CF93DF9300D01F92CDB7D1
:10017000DEB7962E811101C081E0843008F083E063
:1001800028989E012F5F3F4F69010F2EF3E0EF2E5D
:10019000F12CF02D082F10E058010E151F0531F439
:1001A000892D0E94A700F601808305C080E00E948F
:1001B000A700F6018083F1E0EF1AF1082FEFC21AD1
:1001C000D20AE114F10441F7289AFE01EA19FB0969
:1001D00084810F900F900F90DF91CF911F910F911D
:1001E000FF90EF90DF90CF90BF90AF909F900895D9
:1001F0006F927F928F929F92AF92BF92CF92DF9237
:10020000EF92FF920F931F93CF93DF93782E4A01C3
:100210005B01622E022F069506950695822F877048
:1002200009F00F5F002341F1C02FD0E02197CC0FE0
:10023000DD1FCC0FDD1FCC0FDD1F10E080E090E054
:10024000DC01CC24D82EE92EFA2EC501B4010C2EE7
:1002500004C096958795779567950A94D2F7872D70
:100260000E94AA00A7019601282BDA01C9011F5F8D
:1002700028970113E6CF03C080E090E0DC0120E284
:1002800030E0261931094FEF5FEFBA0104C07695CF
:100290006795579547952A95D2F78A019B010823C0
:1002A00019232A233B23C901B801DF91CF911F9164
:1002B0000F91FF90EF90DF90CF90BF90AF909F9005
:1002C0008F907F906F900895CF93C82F60ED0E941C
:1002D000AA0060E08C2F0E94AA0060E08C2F0E9490
:1002E000AA00CF910895209A289A87B187B988B13A
:1002F000806C88B96E9A76980895769A08950F93CF
:100300001F93E62FBA01A9010E2F10E0F8013197D3
:10031000EB31F10508F082C0EA5AFF4F0C94020657
:1003200026E10E94F80080C029E00E94F8007CC00D
:1003300026E10E94F80078C024E140E050E0BA01D4
:100340000E94F80071C02CE00E94F8006DC02CE003
:100350000E94F80069C02AE00E94F80065C02DE004
:100360000E94F80061C02AE00E94F8005DC028E009
:100370000E94F80059C028E00E94F80055C028E00B
:100380000E94F80051C028E00E94F8004DC02EE005
:100390000E94F80049C028E00E94F80045C028E00B
:1003A0000E94F80041C028E00E94F8003DC04F7054
:1003B00055276627772728E00E94F80035C028E0F7
:1003C0000E94F80031C04F7155276627772728E033
:1003D0000E94F80029C04F7155276627772728E02B
:1003E0000E94F80021C028E00E94F8001DC028E00B
:1003F0000E94F80019C020E10E94F80015C028E012
:100400000E94F80011C020E10E94F8000DC020E118
:1004100040E050E0BA010E94F80006C0642F0E943C
:10042000AA0060E070E0CB011F910F910895CF9278
:10043000DF92EF92FF920F931F93CF93DF93C82F1A
:10044000D42F68017901642F0E94AA00A7019601A8
:100450006D2F8C2F0E947F01DF91CF911F910F9103
:10046000FF90EF90DF90CF9008950F931F93062F8A
:1004700010E020E030E04AE060E00E9417021F91A7
:100480000F9108950F931F93062F10E020E030E0A6
:1004900049E060E00E9417021F910F9108950F93A9
:1004A0001F93062F10E020E030E04BE060E00E9458
:1004B00017021F910F9108950F931F93062F10E0BD
:1004C00020E030E04CE060E00E9417021F910F91A5
:1004D00008950F931F93062F10E020E030E043E1D2
:1004E00060E00E9417021F910F9108950F931F93D0
:1004F000062F10E020E030E044E160E00E941702A7
:100500001F910F9108950F931F93CF93C82FCB0185
:10051000BA010E94C6042CE83CEB4CE05EE30E946A
:100520006D050E9497048B019C01011580E118075D
:100530002105310520F00FEF1FE020E030E045E01D
:1005400060E08C2F0E941702CF911F910F910895A8
:100550000F931F93CF93C82FCB01BA010E94C604FB
:100560002CE83CEB4CE05EE30E946D050E94970492
:100570008B019C01011580E118072105310520F050
:100580000FEF1FE020E030E046E060E08C2F0E949B
:100590001702CF911F910F910895CF93DF93C82F2A
:1005A000D62F60620E94AA0020E030E0A9016D2FE2
:1005B0008C2F0E947F01DF91CF910895FF920F93BE
:1005C0001F93CF93DF93F82EEB016AE10E94CD02D7
:1005D000DC01CB01807FCF70DD278E01DD0F220B88
:1005E000330B082B192B2A2B3B2B4AE160E08F2D74
:1005F0000E941702DF91CF911F910F91FF900895F4
:10060000FF920F931F93CF93DF93F82EEB016AE1D4
:100610000E94CD02DC01CB018F7EC071DD278E01EF
:10062000DD0F220B330B082B192B2A2B3B2B4AE116
:1006300060E08F2D0E941702DF91CF911F910F91E3
:10064000FF900895FF920F931F93CF93DF93F82E9F
:10065000EB016AE10E94CD02DC01CB018F7DC0720B
:10066000DD278E01DD0F220B330B082B192B2A2BD4
:100670003B2B4AE160E08F2D0E941702DF91CF9162
:100680001F910F91FF9008950F931F93CF93C82F41
:100690006AE10E94CD028B019C011370222733274F
:1006A0004AE160E08C2F0E941702CF911F910F91B9
:1006B00008950F931F93CF93DF93D82FC62F6AE12E
:1006C0000E94CD028B019C010F77C0780C2B4AE170
:1006D00060E08D2F0E941702DF91CF911F910F9143
:1006E00008950F931F93CF93DF93C82FD62F68E100
:1006F0000E94CD028B019C010027222733270D2B5E
:1007000048E160E08C2F0E941702DF91CF911F918A
:100710000F9108950E94C6042DEB37E346E85DE390
:100720000E946D050E9480040E949704611524E0D8
:1007300072078105910520F06FEF73E080E090E093
:1007400008950F931F93CF93C82FCB01BA010E9436
:100750008A038B019C0147E060E08C2F0E94170206
:10076000CF911F910F910895EF92FF920F931F93D6
:10077000CF93E0E0F1E080EA80838183828383830A
:1007800088EC90E0A0E0B0E084839583A683B783F3
:1007900080879187A287B38784E690E0A0E0B0E0ED
:1007A00084879587A687B7870E9473010E947D0181
:1007B0008FE99FE00197F1F700C00000289880E0E2
:1007C0000E94A70080E00E94A70080E00E94A7008E
:1007D000289AC1E00F2EF0E0EF2EF1E0FF2EF02D71
:1007E0006AE18C2F0E94CD0266EA8C2F0E94710371
:1007F00066E18C2F0E94CD0268E08C2F0E94690276
:1008000060E88C2F0E94590340E060E08C2F0E942A
:10081000440360E070E08C2F0E94220360E170E0EE
:100820008C2F0E94000360E070E08C2F0E94DE029B
:1008300060E08C2F0E947602F70144815581668129
:1008400077818C2F0E94A103F70160818C2F0E9479
:100850003502F70161818C2F0E944202F70162810B
:100860008C2F0E944F02F70163818C2F0E945C0243
:10087000F70140855185628573858C2F0E94830224
:10088000F70144855585668577858C2F0E94A802DF
:100890000FEA10E020E030E047E160E08C2F0E949A
:1008A00017028C2F0E946401CF5FC43009F098CFEB
:1008B000CF911F910F91FF90EF900895279A84B5E3
:1008C000836884BD85B5816085BD089584B18660E7
:1008D00084B98CB58D658CBD8DB581608DBD089555
:1008E0008EBD00000DB407FEFDCF8EB508950E94A9
:1008F00066040E94B4030E945E040E948500FFCF3C
:100900000E944E0590F09F3748F4911116F40C9414
:10091000670560E070E080E89FE3089526F01B160D
:10092000611D711D811D0C9403050C941E050E9410
:10093000340588F09F5798F0B92F9927B751B0F038
:10094000E1F0660F771F881F991F1AF0BA95C9F753
:1009500014C0B13091F00E946605B1E008950C9486
:100960006605672F782F8827B85F39F0B93FCCF339
:10097000869577956795B395D9F73EF490958095D0
:10098000709561957F4F8F4F9F4F0895E89409C0F0
:1009900097FB3EF490958095709561957F4F8F4FB2
:1009A0009F4F9923A9F0F92F96E9BB279395F695C8
:1009B000879577956795B795F111F8CFFAF4BB0F46
:1009C00011F460FF1BC06F5F7F4F8F4F9F4F16C0AA
:1009D000882311F096E911C0772321F09EE8872F34
:1009E000762F05C0662371F096E8862F70E060E0F0
:1009F0002AF09A95660F771F881FDAF7880F969569
:100A0000879597F90895882371F4772321F09850FA
:100A1000872B762F07C0662311F499270DC09051BC
:100A2000862B70E060E02AF09A95660F771F881F8A
:100A3000DAF7880F9695879597F908959F3F31F0DB
:100A4000915020F4879577956795B795880F911DFC
:100A50009695879597F9089557FD9058440F551F1F
:100A600059F05F3F71F04795880F97FB991F61F030
:100A70009F3F79F087950895121613061406551FA7
:100A8000F2CF4695F1DF08C0161617061806991F13
:100A9000F1CF869571056105089408950E9434058B
:100AA000A0F0BEE7B91788F4BB279F3860F416168C
:100AB000B11D672F782F8827985FF7CF8695779598
:100AC0006795B11D93959639C8F30895E894BB27AF
:100AD00066277727CB0197F908950E9480050C942B
:100AE000F1050E94E30538F00E94EA0520F0952305
:100AF00011F00C94DA050C94E00511240C946705B0
:100B00000E942C0570F3959FC1F3950F50E0551F7F
:100B1000629FF001729FBB27F00DB11D639FAA2752
:100B2000F00DB11DAA1F649F6627B00DA11D661FA1
:100B3000829F2227B00DA11D621F739FB00DA11DC2
:100B4000621F839FA00D611D221F749F3327A00D7C
:100B5000611D231F849F600D211D822F762F6A2F18
:100B600011249F5750409AF0F1F088234AF0EE0F7D
:100B7000FF1FBB1F661F771F881F91505040A9F7AA
:100B80009E3F510580F00C94DA050C9467055F3F99
:100B9000E4F3983ED4F3869577956795B795F795E6
:100BA000E7959F5FC1F7FE2B880F911D969587955E
:100BB00097F9089597F99F6780E870E060E00895DD
:100BC0009FEF80EC089500240A9416161706180665
:100BD0000906089500240A94121613061406050641
:100BE0000895092E0394000C11F4882352F0BB0FD2
:100BF00040F4BF2B11F460FF04C06F5F7F4F8F4F35
:100C00009F4F0895EE0FFF1F0590F491E02D09947A
:040C1000F894FFCF86
:00000001FF
