S0150000506F7765725354455030315F322E73726563D4
S11300000C9456000C9468000C9468000C946800DE
S11300100C9468000C9468000C9468000C946800BC
S11300200C9468000C9468000C9468000C946800AC
S11300300C9468000C9468000C9468000C9468009C
S11300400C9468000C9468000C9468000C9468008C
S11300500C9468000C9468000C9468000C9468007C
S11300600C9468000C9468000C9468000C9468006C
S11300700C9468000C9468000C9468000C9468005C
S11300800C9468000C9468000C9468000C9468004C
S11300900C9468000C9468000C9468000C9468003C
S11300A00C9468000C9468000C94680011241FBE22
S11300B0CFEFDAE0DEBFCDBF21E0A0E0B1E001C0C8
S11300C01D92A030B207E1F70E94A9000C94B5007C
S11300D00C940000AAE7B0E08C9187608C93ECE765
S11300E0F0E080818064808380818F7D8083808143
S11300F08E7F808380818D7F808380818B7F8083CE
S11301008081877F808380818F7E8083EBE7F0E02E
S113011080818F7D80838C9180688C930895EAE739
S1130120F0E0808180648083808186FDFDCF8091B2
S11301307900837090E0982F882720917800822B93
S11301400895279A84B5836884BD85B5816085BD8B
S113015008950E94A1000E946A000E948F00969553
S111016087959695879587BDF8CFF894FFCFC5
S9030000FC
