S0130000506F7765727374657030312E73726563E7
S11300000C9456000C9468000C9468000C946800DE
S11300100C9468000C9468000C9468000C946800BC
S11300200C9468000C9468000C9468000C946800AC
S11300300C9468000C9468000C9468000C9468009C
S11300400C9468000C9468000C9468000C9468008C
S11300500C9468000C9468000C9468000C9468007C
S11300600C9468000C9468000C9468000C9468006C
S11300700C9468000C9468000C9468000C9468005C
S11300800C9468000C9468000C9468000C9468004C
S11300900C9468000C9468000C9468000C9468003C
S11300A00C9468000C9468000C94680011241FBE22
S11300B0CFEFDAE0DEBFCDBF21E0A0E0B1E001C0C8
S11300C01D92A030B207E1F70E946A000C946B0005
S10D00D00C940000FFCFF894FFCF5A
S9030000FC
